{
  "contractName": "ChlChainChallengeNFT",
  "abi": [
    {
      "inputs": [],
      "stateMutability": "nonpayable",
      "type": "constructor"
    },
    {
      "anonymous": false,
      "inputs": [
        {
          "indexed": true,
          "internalType": "address",
          "name": "owner",
          "type": "address"
        },
        {
          "indexed": true,
          "internalType": "address",
          "name": "approved",
          "type": "address"
        },
        {
          "indexed": true,
          "internalType": "uint256",
          "name": "tokenId",
          "type": "uint256"
        }
      ],
      "name": "Approval",
      "type": "event"
    },
    {
      "anonymous": false,
      "inputs": [
        {
          "indexed": true,
          "internalType": "address",
          "name": "owner",
          "type": "address"
        },
        {
          "indexed": true,
          "internalType": "address",
          "name": "operator",
          "type": "address"
        },
        {
          "indexed": false,
          "internalType": "bool",
          "name": "approved",
          "type": "bool"
        }
      ],
      "name": "ApprovalForAll",
      "type": "event"
    },
    {
      "anonymous": false,
      "inputs": [
        {
          "indexed": true,
          "internalType": "address",
          "name": "previousOwner",
          "type": "address"
        },
        {
          "indexed": true,
          "internalType": "address",
          "name": "newOwner",
          "type": "address"
        }
      ],
      "name": "OwnershipTransferred",
      "type": "event"
    },
    {
      "anonymous": false,
      "inputs": [
        {
          "indexed": true,
          "internalType": "address",
          "name": "from",
          "type": "address"
        },
        {
          "indexed": true,
          "internalType": "address",
          "name": "to",
          "type": "address"
        },
        {
          "indexed": true,
          "internalType": "uint256",
          "name": "tokenId",
          "type": "uint256"
        }
      ],
      "name": "Transfer",
      "type": "event"
    },
    {
      "anonymous": false,
      "inputs": [
        {
          "indexed": false,
          "internalType": "address",
          "name": "_ownerAnswer",
          "type": "address"
        },
        {
          "indexed": false,
          "internalType": "uint256",
          "name": "_idAnswer",
          "type": "uint256"
        },
        {
          "indexed": false,
          "internalType": "uint256",
          "name": "_idChallenge",
          "type": "uint256"
        },
        {
          "indexed": false,
          "internalType": "uint256",
          "name": "idQuestion",
          "type": "uint256"
        }
      ],
      "name": "answerGiven",
      "type": "event"
    },
    {
      "anonymous": false,
      "inputs": [
        {
          "indexed": false,
          "internalType": "uint256",
          "name": "_idQuestion",
          "type": "uint256"
        },
        {
          "indexed": false,
          "internalType": "uint256",
          "name": "_idChallenge",
          "type": "uint256"
        }
      ],
      "name": "questionAdded",
      "type": "event"
    },
    {
      "anonymous": false,
      "inputs": [
        {
          "indexed": false,
          "internalType": "address",
          "name": "_ownerChallenge",
          "type": "address"
        },
        {
          "indexed": false,
          "internalType": "uint256",
          "name": "_idChallenge",
          "type": "uint256"
        }
      ],
      "name": "ChallengeCreated",
      "type": "event"
    },
    {
      "anonymous": false,
      "inputs": [
        {
          "indexed": false,
          "internalType": "uint256",
          "name": "_idChallenge",
          "type": "uint256"
        }
      ],
      "name": "ChallengeDeleted",
      "type": "event"
    },
    {
      "anonymous": false,
      "inputs": [
        {
          "indexed": false,
          "internalType": "uint256",
          "name": "_idChallenge",
          "type": "uint256"
        }
      ],
      "name": "ChallengeNFTMinted",
      "type": "event"
    },
    {
      "anonymous": false,
      "inputs": [
        {
          "indexed": false,
          "internalType": "uint256",
          "name": "_idChallenge",
          "type": "uint256"
        }
      ],
      "name": "ChallengeTerminated",
      "type": "event"
    },
    {
      "inputs": [],
      "name": "ChallengeUnitCost",
      "outputs": [
        {
          "internalType": "uint256",
          "name": "",
          "type": "uint256"
        }
      ],
      "stateMutability": "view",
      "type": "function",
      "constant": true
    },
    {
      "inputs": [
        {
          "internalType": "address",
          "name": "to",
          "type": "address"
        },
        {
          "internalType": "uint256",
          "name": "tokenId",
          "type": "uint256"
        }
      ],
      "name": "approve",
      "outputs": [],
      "stateMutability": "nonpayable",
      "type": "function"
    },
    {
      "inputs": [
        {
          "internalType": "address",
          "name": "owner",
          "type": "address"
        }
      ],
      "name": "balanceOf",
      "outputs": [
        {
          "internalType": "uint256",
          "name": "",
          "type": "uint256"
        }
      ],
      "stateMutability": "view",
      "type": "function",
      "constant": true
    },
    {
      "inputs": [
        {
          "internalType": "uint256",
          "name": "tokenId",
          "type": "uint256"
        }
      ],
      "name": "getApproved",
      "outputs": [
        {
          "internalType": "address",
          "name": "",
          "type": "address"
        }
      ],
      "stateMutability": "view",
      "type": "function",
      "constant": true
    },
    {
      "inputs": [
        {
          "internalType": "address",
          "name": "owner",
          "type": "address"
        },
        {
          "internalType": "address",
          "name": "operator",
          "type": "address"
        }
      ],
      "name": "isApprovedForAll",
      "outputs": [
        {
          "internalType": "bool",
          "name": "",
          "type": "bool"
        }
      ],
      "stateMutability": "view",
      "type": "function",
      "constant": true
    },
    {
      "inputs": [],
      "name": "name",
      "outputs": [
        {
          "internalType": "string",
          "name": "",
          "type": "string"
        }
      ],
      "stateMutability": "view",
      "type": "function",
      "constant": true
    },
    {
      "inputs": [],
      "name": "owner",
      "outputs": [
        {
          "internalType": "address",
          "name": "",
          "type": "address"
        }
      ],
      "stateMutability": "view",
      "type": "function",
      "constant": true
    },
    {
      "inputs": [
        {
          "internalType": "uint256",
          "name": "tokenId",
          "type": "uint256"
        }
      ],
      "name": "ownerOf",
      "outputs": [
        {
          "internalType": "address",
          "name": "",
          "type": "address"
        }
      ],
      "stateMutability": "view",
      "type": "function",
      "constant": true
    },
    {
      "inputs": [],
      "name": "renounceOwnership",
      "outputs": [],
      "stateMutability": "nonpayable",
      "type": "function"
    },
    {
      "inputs": [
        {
          "internalType": "address",
          "name": "from",
          "type": "address"
        },
        {
          "internalType": "address",
          "name": "to",
          "type": "address"
        },
        {
          "internalType": "uint256",
          "name": "tokenId",
          "type": "uint256"
        }
      ],
      "name": "safeTransferFrom",
      "outputs": [],
      "stateMutability": "nonpayable",
      "type": "function"
    },
    {
      "inputs": [
        {
          "internalType": "address",
          "name": "from",
          "type": "address"
        },
        {
          "internalType": "address",
          "name": "to",
          "type": "address"
        },
        {
          "internalType": "uint256",
          "name": "tokenId",
          "type": "uint256"
        },
        {
          "internalType": "bytes",
          "name": "data",
          "type": "bytes"
        }
      ],
      "name": "safeTransferFrom",
      "outputs": [],
      "stateMutability": "nonpayable",
      "type": "function"
    },
    {
      "inputs": [
        {
          "internalType": "address",
          "name": "operator",
          "type": "address"
        },
        {
          "internalType": "bool",
          "name": "approved",
          "type": "bool"
        }
      ],
      "name": "setApprovalForAll",
      "outputs": [],
      "stateMutability": "nonpayable",
      "type": "function"
    },
    {
      "inputs": [
        {
          "internalType": "bytes4",
          "name": "interfaceId",
          "type": "bytes4"
        }
      ],
      "name": "supportsInterface",
      "outputs": [
        {
          "internalType": "bool",
          "name": "",
          "type": "bool"
        }
      ],
      "stateMutability": "view",
      "type": "function",
      "constant": true
    },
    {
      "inputs": [],
      "name": "symbol",
      "outputs": [
        {
          "internalType": "string",
          "name": "",
          "type": "string"
        }
      ],
      "stateMutability": "view",
      "type": "function",
      "constant": true
    },
    {
      "inputs": [
        {
          "internalType": "uint256",
          "name": "tokenId",
          "type": "uint256"
        }
      ],
      "name": "tokenURI",
      "outputs": [
        {
          "internalType": "string",
          "name": "",
          "type": "string"
        }
      ],
      "stateMutability": "view",
      "type": "function",
      "constant": true
    },
    {
      "inputs": [
        {
          "internalType": "address",
          "name": "from",
          "type": "address"
        },
        {
          "internalType": "address",
          "name": "to",
          "type": "address"
        },
        {
          "internalType": "uint256",
          "name": "tokenId",
          "type": "uint256"
        }
      ],
      "name": "transferFrom",
      "outputs": [],
      "stateMutability": "nonpayable",
      "type": "function"
    },
    {
      "inputs": [
        {
          "internalType": "address",
          "name": "newOwner",
          "type": "address"
        }
      ],
      "name": "transferOwnership",
      "outputs": [],
      "stateMutability": "nonpayable",
      "type": "function"
    },
    {
      "inputs": [
        {
          "internalType": "uint256",
          "name": "_idChallenge",
          "type": "uint256"
        }
      ],
      "name": "getChallengeStatusById",
      "outputs": [
        {
          "internalType": "uint256",
          "name": "",
          "type": "uint256"
        }
      ],
      "stateMutability": "view",
      "type": "function",
      "constant": true
    },
    {
      "inputs": [
        {
          "internalType": "uint256",
          "name": "_idChallenge",
          "type": "uint256"
        }
      ],
      "name": "getChallengeById",
      "outputs": [
        {
          "components": [
            {
              "internalType": "uint256",
              "name": "idChallenge",
              "type": "uint256"
            },
            {
              "internalType": "address",
              "name": "owner",
              "type": "address"
            },
            {
              "internalType": "string",
              "name": "description",
              "type": "string"
            },
            {
              "internalType": "enum ChlChainChallengeNFT.ChallengeStatus",
              "name": "ChallengeStatus",
              "type": "uint8"
            },
            {
              "internalType": "bool",
              "name": "exists",
              "type": "bool"
            },
            {
              "internalType": "bool",
              "name": "minted",
              "type": "bool"
            },
            {
              "internalType": "bool",
              "name": "listed",
              "type": "bool"
            }
          ],
          "internalType": "struct ChlChainChallengeNFT.Challenge",
          "name": "",
          "type": "tuple"
        }
      ],
      "stateMutability": "view",
      "type": "function",
      "constant": true
    },
    {
      "inputs": [
        {
          "internalType": "address",
          "name": "_ownerChallenge",
          "type": "address"
        },
        {
          "internalType": "uint256",
          "name": "_idChallenge",
          "type": "uint256"
        }
      ],
      "name": "getChallengeByAddress",
      "outputs": [
        {
          "components": [
            {
              "internalType": "uint256",
              "name": "idChallenge",
              "type": "uint256"
            },
            {
              "internalType": "address",
              "name": "owner",
              "type": "address"
            },
            {
              "internalType": "string",
              "name": "description",
              "type": "string"
            },
            {
              "internalType": "enum ChlChainChallengeNFT.ChallengeStatus",
              "name": "ChallengeStatus",
              "type": "uint8"
            },
            {
              "internalType": "bool",
              "name": "exists",
              "type": "bool"
            },
            {
              "internalType": "bool",
              "name": "minted",
              "type": "bool"
            },
            {
              "internalType": "bool",
              "name": "listed",
              "type": "bool"
            }
          ],
          "internalType": "struct ChlChainChallengeNFT.Challenge",
          "name": "",
          "type": "tuple"
        }
      ],
      "stateMutability": "view",
      "type": "function",
      "constant": true
    },
    {
      "inputs": [],
      "name": "getMyChallenges",
      "outputs": [
        {
          "components": [
            {
              "internalType": "uint256",
              "name": "idChallenge",
              "type": "uint256"
            },
            {
              "internalType": "address",
              "name": "owner",
              "type": "address"
            },
            {
              "internalType": "string",
              "name": "description",
              "type": "string"
            },
            {
              "internalType": "enum ChlChainChallengeNFT.ChallengeStatus",
              "name": "ChallengeStatus",
              "type": "uint8"
            },
            {
              "internalType": "bool",
              "name": "exists",
              "type": "bool"
            },
            {
              "internalType": "bool",
              "name": "minted",
              "type": "bool"
            },
            {
              "internalType": "bool",
              "name": "listed",
              "type": "bool"
            }
          ],
          "internalType": "struct ChlChainChallengeNFT.Challenge[]",
          "name": "",
          "type": "tuple[]"
        }
      ],
      "stateMutability": "view",
      "type": "function",
      "constant": true
    },
    {
      "inputs": [
        {
          "internalType": "uint256",
          "name": "_idChallenge",
          "type": "uint256"
        }
      ],
      "name": "setChallengeListed",
      "outputs": [],
      "stateMutability": "nonpayable",
      "type": "function"
    },
    {
      "inputs": [
        {
          "internalType": "uint256",
          "name": "_idChallenge",
          "type": "uint256"
        },
        {
          "internalType": "address",
          "name": "_owner",
          "type": "address"
        }
      ],
      "name": "setChallengeOwner",
      "outputs": [],
      "stateMutability": "nonpayable",
      "type": "function"
    },
    {
      "inputs": [
        {
          "internalType": "address",
          "name": "_ownerChallenge",
          "type": "address"
        },
        {
          "internalType": "string",
          "name": "_description",
          "type": "string"
        }
      ],
      "name": "createChallenge",
      "outputs": [],
      "stateMutability": "nonpayable",
      "type": "function"
    },
    {
      "inputs": [
        {
          "internalType": "address",
          "name": "marketplaceContract",
          "type": "address"
        },
        {
          "internalType": "uint256",
          "name": "_idChallenge",
          "type": "uint256"
        }
      ],
      "name": "mintChallenge",
      "outputs": [],
      "stateMutability": "nonpayable",
      "type": "function"
    },
    {
      "inputs": [
        {
          "internalType": "uint256",
          "name": "_idChallenge",
          "type": "uint256"
        }
      ],
      "name": "terminateChallenge",
      "outputs": [],
      "stateMutability": "nonpayable",
      "type": "function"
    },
    {
      "inputs": [
        {
          "internalType": "uint256",
          "name": "_idChallenge",
          "type": "uint256"
        }
      ],
      "name": "deleteChallenge",
      "outputs": [],
      "stateMutability": "nonpayable",
      "type": "function"
    },
    {
      "inputs": [
        {
          "internalType": "uint256",
          "name": "_idChallenge",
          "type": "uint256"
        },
        {
          "internalType": "string",
          "name": "_question",
          "type": "string"
        }
      ],
      "name": "addQuestion",
      "outputs": [],
      "stateMutability": "nonpayable",
      "type": "function"
    },
    {
      "inputs": [
        {
          "internalType": "uint256",
          "name": "_idChallenge",
          "type": "uint256"
        },
        {
          "internalType": "uint256",
          "name": "_idQuestionAnswer",
          "type": "uint256"
        },
        {
          "internalType": "string",
          "name": "_answer",
          "type": "string"
        }
      ],
      "name": "giveAnswer",
      "outputs": [],
      "stateMutability": "nonpayable",
      "type": "function"
    }
  ],
  "bytecode": "0x60806040523480156200001157600080fd5b506040518060400160405280600e81526020017f4f7069436861696e5375727665790000000000000000000000000000000000008152506040518060400160405280600381526020017f4f5053000000000000000000000000000000000000000000000000000000000081525081600090816200008f919062000412565b508060019081620000a1919062000412565b505050620000c4620000b8620000ca60201b60201c565b620000d260201b60201c565b620004f9565b600033905090565b6000600760009054906101000a900473ffffffffffffffffffffffffffffffffffffffff16905081600760006101000a81548173ffffffffffffffffffffffffffffffffffffffff021916908373ffffffffffffffffffffffffffffffffffffffff1602179055508173ffffffffffffffffffffffffffffffffffffffff168173ffffffffffffffffffffffffffffffffffffffff167f8be0079c531659141344cd1fd0a4f28419497f9722a3daafe3b4186f6b6457e060405160405180910390a35050565b600081519050919050565b7f4e487b7100000000000000000000000000000000000000000000000000000000600052604160045260246000fd5b7f4e487b7100000000000000000000000000000000000000000000000000000000600052602260045260246000fd5b600060028204905060018216806200021a57607f821691505b60208210810362000230576200022f620001d2565b5b50919050565b60008190508160005260206000209050919050565b60006020601f8301049050919050565b600082821b905092915050565b6000600883026200029a7fffffffffffffffffffffffffffffffffffffffffffffffffffffffffffffffff826200025b565b620002a686836200025b565b95508019841693508086168417925050509392505050565b6000819050919050565b6000819050919050565b6000620002f3620002ed620002e784620002be565b620002c8565b620002be565b9050919050565b6000819050919050565b6200030f83620002d2565b620003276200031e82620002fa565b84845462000268565b825550505050565b600090565b6200033e6200032f565b6200034b81848462000304565b505050565b5b8181101562000373576200036760008262000334565b60018101905062000351565b5050565b601f821115620003c2576200038c8162000236565b62000397846200024b565b81016020851015620003a7578190505b620003bf620003b6856200024b565b83018262000350565b50505b505050565b600082821c905092915050565b6000620003e760001984600802620003c7565b1980831691505092915050565b6000620004028383620003d4565b9150826002028217905092915050565b6200041d8262000198565b67ffffffffffffffff811115620004395762000438620001a3565b5b62000445825462000201565b6200045282828562000377565b600060209050601f8311600181146200048a576000841562000475578287015190505b620004818582620003f4565b865550620004f1565b601f1984166200049a8662000236565b60005b82811015620004c4578489015182556001820191506020850194506020810190506200049d565b86831015620004e45784890151620004e0601f891682620003d4565b8355505b6001600288020188555050505b505050505050565b6148b480620005096000396000f3fe608060405234801561001057600080fd5b50600436106101cf5760003560e01c8063715018a611610104578063bbb00a57116100a2578063cf97c41211610071578063cf97c41214610514578063e985e9c514610530578063f0faeac614610560578063f2fde38b14610590576101cf565b8063bbb00a571461047c578063c0ac4ae414610498578063c87b56dd146104c8578063cb39b22e146104f8576101cf565b8063a22cb465116100de578063a22cb465146103f8578063a5f146da14610414578063a93f682914610430578063b88d4fde14610460576101cf565b8063715018a6146103b25780638da5cb5b146103bc57806395d89b41146103da576101cf565b806342842e0e1161017157806368e4d26e1161014b57806368e4d26e1461032e5780636a63dc4a1461034a5780636b370b391461036657806370a0823114610382576101cf565b806342842e0e146102c4578063596f1702146102e05780636352211e146102fe576101cf565b8063095ea7b3116101ad578063095ea7b3146102525780631abe62c11461026e57806323b872dd1461028a578063393dd5d9146102a6576101cf565b806301ffc9a7146101d457806306fdde0314610204578063081812fc14610222575b600080fd5b6101ee60048036038101906101e99190612f30565b6105ac565b6040516101fb9190612f78565b60405180910390f35b61020c61068e565b6040516102199190613023565b60405180910390f35b61023c6004803603810190610237919061307b565b610720565b60405161024991906130e9565b60405180910390f35b61026c60048036038101906102679190613130565b610766565b005b61028860048036038101906102839190613130565b61087d565b005b6102a4600480360381019061029f9190613170565b6109f1565b005b6102ae610a51565b6040516102bb91906131d2565b60405180910390f35b6102de60048036038101906102d99190613170565b610a57565b005b6102e8610a77565b6040516102f59190613439565b60405180910390f35b6103186004803603810190610313919061307b565b610c91565b60405161032591906130e9565b60405180910390f35b6103486004803603810190610343919061307b565b610d17565b005b610364600480360381019061035f919061307b565b610d49565b005b610380600480360381019061037b9190613590565b610de9565b005b61039c600480360381019061039791906135ec565b61111f565b6040516103a991906131d2565b60405180910390f35b6103ba6111d6565b005b6103c46111ea565b6040516103d191906130e9565b60405180910390f35b6103e2611214565b6040516103ef9190613023565b60405180910390f35b610412600480360381019061040d9190613645565b6112a6565b005b61042e60048036038101906104299190613685565b6112bc565b005b61044a6004803603810190610445919061307b565b6113fe565b60405161045791906131d2565b60405180910390f35b61047a60048036038101906104759190613795565b61143d565b005b61049660048036038101906104919190613818565b61149f565b005b6104b260048036038101906104ad919061307b565b611568565b6040516104bf9190613910565b60405180910390f35b6104e260048036038101906104dd919061307b565b611713565b6040516104ef9190613023565b60405180910390f35b610512600480360381019061050d919061307b565b611825565b005b61052e60048036038101906105299190613932565b611904565b005b61054a60048036038101906105459190613972565b61195d565b6040516105579190612f78565b60405180910390f35b61057a60048036038101906105759190613130565b6119f1565b6040516105879190613910565b60405180910390f35b6105aa60048036038101906105a591906135ec565b611be9565b005b60007f80ac58cd000000000000000000000000000000000000000000000000000000007bffffffffffffffffffffffffffffffffffffffffffffffffffffffff1916827bffffffffffffffffffffffffffffffffffffffffffffffffffffffff1916148061067757507f5b5e139f000000000000000000000000000000000000000000000000000000007bffffffffffffffffffffffffffffffffffffffffffffffffffffffff1916827bffffffffffffffffffffffffffffffffffffffffffffffffffffffff1916145b80610687575061068682611c6c565b5b9050919050565b60606000805461069d906139e1565b80601f01602080910402602001604051908101604052809291908181526020018280546106c9906139e1565b80156107165780601f106106eb57610100808354040283529160200191610716565b820191906000526020600020905b8154815290600101906020018083116106f957829003601f168201915b5050505050905090565b600061072b82611cd6565b6004600083815260200190815260200160002060009054906101000a900473ffffffffffffffffffffffffffffffffffffffff169050919050565b600061077182610c91565b90508073ffffffffffffffffffffffffffffffffffffffff168373ffffffffffffffffffffffffffffffffffffffff16036107e1576040517f08c379a00000000000000000000000000000000000000000000000000000000081526004016107d890613a84565b60405180910390fd5b8073ffffffffffffffffffffffffffffffffffffffff16610800611d21565b73ffffffffffffffffffffffffffffffffffffffff16148061082f575061082e81610829611d21565b61195d565b5b61086e576040517f08c379a000000000000000000000000000000000000000000000000000000000815260040161086590613b16565b60405180910390fd5b6108788383611d29565b505050565b6001808111156108905761088f613281565b5b610899826113fe565b146108d9576040517f08c379a00000000000000000000000000000000000000000000000000000000081526004016108d090613b82565b60405180910390fd5b6000600b600083815260200190815260200160002060010160009054906101000a900473ffffffffffffffffffffffffffffffffffffffff16905061091e8383611de2565b6109298360016112a6565b6001600b600084815260200190815260200160002060030160026101000a81548160ff021916908315150217905550600061096383611fff565b9050600060405180608001604052806044815260200161483b60449139905060008183604051602001610997929190613c04565b60405160208183030381529060405290506109b285826120cd565b7fda1522ad3dd77f0eff2905dc72509dd3b837ab58e2d72cf6ad71fd9cd3d77efc856040516109e191906131d2565b60405180910390a1505050505050565b610a026109fc611d21565b8261213a565b610a41576040517f08c379a0000000000000000000000000000000000000000000000000000000008152600401610a3890613ca9565b60405180910390fd5b610a4c8383836121cf565b505050565b6101f481565b610a728383836040518060200160405280600081525061143d565b505050565b6060600c60003373ffffffffffffffffffffffffffffffffffffffff1673ffffffffffffffffffffffffffffffffffffffff168152602001908152602001600020805480602002602001604051908101604052809291908181526020016000905b82821015610c8857838290600052602060002090600402016040518060e0016040529081600082015481526020016001820160009054906101000a900473ffffffffffffffffffffffffffffffffffffffff1673ffffffffffffffffffffffffffffffffffffffff1673ffffffffffffffffffffffffffffffffffffffff168152602001600282018054610b6b906139e1565b80601f0160208091040260200160405190810160405280929190818152602001828054610b97906139e1565b8015610be45780601f10610bb957610100808354040283529160200191610be4565b820191906000526020600020905b815481529060010190602001808311610bc757829003601f168201915b505050505081526020016003820160009054906101000a900460ff166001811115610c1257610c11613281565b5b6001811115610c2457610c23613281565b5b81526020016003820160019054906101000a900460ff161515151581526020016003820160029054906101000a900460ff161515151581526020016003820160039054906101000a900460ff16151515158152505081526020019060010190610ad8565b50505050905090565b600080610c9d836124c8565b9050600073ffffffffffffffffffffffffffffffffffffffff168173ffffffffffffffffffffffffffffffffffffffff1603610d0e576040517f08c379a0000000000000000000000000000000000000000000000000000000008152600401610d0590613d15565b60405180910390fd5b80915050919050565b6001600b600083815260200190815260200160002060030160036101000a81548160ff02191690831515021790555050565b60006001811115610d5d57610d5c613281565b5b610d66826113fe565b14610da6576040517f08c379a0000000000000000000000000000000000000000000000000000000008152600401610d9d90613d81565b60405180910390fd5b610daf81612505565b7fcb893910cb393b5bb0c66f4e542a99176d507fa36b0cb944e421bec6a93e735681604051610dde91906131d2565b60405180910390a150565b6000610df5600a6125e3565b9050610dff612dfc565b6040518060e001604052808381526020018573ffffffffffffffffffffffffffffffffffffffff16815260200184815260200160006001811115610e4657610e45613281565b5b815260200160011515815260200160001515815260200160001515815250905080600b60008481526020019081526020016000206000820151816000015560208201518160010160006101000a81548173ffffffffffffffffffffffffffffffffffffffff021916908373ffffffffffffffffffffffffffffffffffffffff1602179055506040820151816002019081610ee09190613f4d565b5060608201518160030160006101000a81548160ff02191690836001811115610f0c57610f0b613281565b5b021790555060808201518160030160016101000a81548160ff02191690831515021790555060a08201518160030160026101000a81548160ff02191690831515021790555060c08201518160030160036101000a81548160ff021916908315150217905550905050600c60008573ffffffffffffffffffffffffffffffffffffffff1673ffffffffffffffffffffffffffffffffffffffff1681526020019081526020016000208190806001815401808255809150506001900390600052602060002090600402016000909190919091506000820151816000015560208201518160010160006101000a81548173ffffffffffffffffffffffffffffffffffffffff021916908373ffffffffffffffffffffffffffffffffffffffff16021790555060408201518160020190816110439190613f4d565b5060608201518160030160006101000a81548160ff0219169083600181111561106f5761106e613281565b5b021790555060808201518160030160016101000a81548160ff02191690831515021790555060a08201518160030160026101000a81548160ff02191690831515021790555060c08201518160030160036101000a81548160ff02191690831515021790555050506110e0600a6125f1565b7f4279e112134859352ebe1176277f8dc1a80826143bdf7d01b9a0f32a01d06844848360405161111192919061401f565b60405180910390a150505050565b60008073ffffffffffffffffffffffffffffffffffffffff168273ffffffffffffffffffffffffffffffffffffffff160361118f576040517f08c379a0000000000000000000000000000000000000000000000000000000008152600401611186906140ba565b60405180910390fd5b600360008373ffffffffffffffffffffffffffffffffffffffff1673ffffffffffffffffffffffffffffffffffffffff168152602001908152602001600020549050919050565b6111de612607565b6111e86000612685565b565b6000600760009054906101000a900473ffffffffffffffffffffffffffffffffffffffff16905090565b606060018054611223906139e1565b80601f016020809104026020016040519081016040528092919081815260200182805461124f906139e1565b801561129c5780601f106112715761010080835404028352916020019161129c565b820191906000526020600020905b81548152906001019060200180831161127f57829003601f168201915b5050505050905090565b6112b86112b1611d21565b838361274b565b5050565b60006112c860096125e3565b9050600e6000858152602001908152602001600020600084815260200190815260200160002060405180606001604052803373ffffffffffffffffffffffffffffffffffffffff16815260200183815260200184815250908060018154018082558091505060019003906000526020600020906003020160009091909190915060008201518160000160006101000a81548173ffffffffffffffffffffffffffffffffffffffff021916908373ffffffffffffffffffffffffffffffffffffffff1602179055506020820151816001015560408201518160020190816113ae9190613f4d565b5050506113bb60096125f1565b7fa3685256723dd35073588a74066bf06e4165e5ab7b0d4cab9561d4d382dbda6c338286866040516113f094939291906140da565b60405180910390a150505050565b6000600b600083815260200190815260200160002060030160009054906101000a900460ff16600181111561143657611435613281565b5b9050919050565b61144e611448611d21565b8361213a565b61148d576040517f08c379a000000000000000000000000000000000000000000000000000000000815260040161148490613ca9565b60405180910390fd5b611499848484846128b7565b50505050565b60006114ab60086125e3565b9050600d6000848152602001908152602001600020604051806040016040528083815260200184815250908060018154018082558091505060019003906000526020600020906002020160009091909190915060008201518160000155602082015181600101908161151d9190613f4d565b50505061152a60086125f1565b7f4fe413162e240ea219c33f9324aad83929d30c1e92ec16e96c0c9f62649d9b59818460405161155b92919061411f565b60405180910390a1505050565b611570612dfc565b600b60008381526020019081526020016000206040518060e0016040529081600082015481526020016001820160009054906101000a900473ffffffffffffffffffffffffffffffffffffffff1673ffffffffffffffffffffffffffffffffffffffff1673ffffffffffffffffffffffffffffffffffffffff1681526020016002820180546115fe906139e1565b80601f016020809104026020016040519081016040528092919081815260200182805461162a906139e1565b80156116775780601f1061164c57610100808354040283529160200191611677565b820191906000526020600020905b81548152906001019060200180831161165a57829003601f168201915b505050505081526020016003820160009054906101000a900460ff1660018111156116a5576116a4613281565b5b60018111156116b7576116b6613281565b5b81526020016003820160019054906101000a900460ff161515151581526020016003820160029054906101000a900460ff161515151581526020016003820160039054906101000a900460ff1615151515815250509050919050565b606061171e82611cd6565b600060066000848152602001908152602001600020805461173e906139e1565b80601f016020809104026020016040519081016040528092919081815260200182805461176a906139e1565b80156117b75780601f1061178c576101008083540402835291602001916117b7565b820191906000526020600020905b81548152906001019060200180831161179a57829003601f168201915b5050505050905060006117c8612913565b905060008151036117dd578192505050611820565b6000825111156118125780826040516020016117fa929190614148565b60405160208183030381529060405292505050611820565b61181b8461292a565b925050505b919050565b600b60008281526020019081526020016000206000808201600090556001820160006101000a81549073ffffffffffffffffffffffffffffffffffffffff02191690556002820160006118789190612e67565b6003820160006101000a81549060ff02191690556003820160016101000a81549060ff02191690556003820160026101000a81549060ff02191690556003820160036101000a81549060ff021916905550507f96086f52d0febbca75fcf142eed9097524f3464ae751155c4a11ca084b05dd26816040516118f991906131d2565b60405180910390a150565b80600b600084815260200190815260200160002060010160006101000a81548173ffffffffffffffffffffffffffffffffffffffff021916908373ffffffffffffffffffffffffffffffffffffffff1602179055505050565b6000600560008473ffffffffffffffffffffffffffffffffffffffff1673ffffffffffffffffffffffffffffffffffffffff16815260200190815260200160002060008373ffffffffffffffffffffffffffffffffffffffff1673ffffffffffffffffffffffffffffffffffffffff16815260200190815260200160002060009054906101000a900460ff16905092915050565b6119f9612dfc565b600c60008473ffffffffffffffffffffffffffffffffffffffff1673ffffffffffffffffffffffffffffffffffffffff1681526020019081526020016000208281548110611a4a57611a4961416c565b5b90600052602060002090600402016040518060e0016040529081600082015481526020016001820160009054906101000a900473ffffffffffffffffffffffffffffffffffffffff1673ffffffffffffffffffffffffffffffffffffffff1673ffffffffffffffffffffffffffffffffffffffff168152602001600282018054611ad3906139e1565b80601f0160208091040260200160405190810160405280929190818152602001828054611aff906139e1565b8015611b4c5780601f10611b2157610100808354040283529160200191611b4c565b820191906000526020600020905b815481529060010190602001808311611b2f57829003601f168201915b505050505081526020016003820160009054906101000a900460ff166001811115611b7a57611b79613281565b5b6001811115611b8c57611b8b613281565b5b81526020016003820160019054906101000a900460ff161515151581526020016003820160029054906101000a900460ff161515151581526020016003820160039054906101000a900460ff161515151581525050905092915050565b611bf1612607565b600073ffffffffffffffffffffffffffffffffffffffff168173ffffffffffffffffffffffffffffffffffffffff1603611c60576040517f08c379a0000000000000000000000000000000000000000000000000000000008152600401611c579061420d565b60405180910390fd5b611c6981612685565b50565b60007f01ffc9a7000000000000000000000000000000000000000000000000000000007bffffffffffffffffffffffffffffffffffffffffffffffffffffffff1916827bffffffffffffffffffffffffffffffffffffffffffffffffffffffff1916149050919050565b611cdf81612992565b611d1e576040517f08c379a0000000000000000000000000000000000000000000000000000000008152600401611d1590613d15565b60405180910390fd5b50565b600033905090565b816004600083815260200190815260200160002060006101000a81548173ffffffffffffffffffffffffffffffffffffffff021916908373ffffffffffffffffffffffffffffffffffffffff160217905550808273ffffffffffffffffffffffffffffffffffffffff16611d9c83610c91565b73ffffffffffffffffffffffffffffffffffffffff167f8c5be1e5ebec7d5bd14f71427d1e84f3dd0314c0f7b2291e5b200ac8c7c3b92560405160405180910390a45050565b600073ffffffffffffffffffffffffffffffffffffffff168273ffffffffffffffffffffffffffffffffffffffff1603611e51576040517f08c379a0000000000000000000000000000000000000000000000000000000008152600401611e4890614279565b60405180910390fd5b611e5a81612992565b15611e9a576040517f08c379a0000000000000000000000000000000000000000000000000000000008152600401611e91906142e5565b60405180910390fd5b611ea86000838360016129d3565b611eb181612992565b15611ef1576040517f08c379a0000000000000000000000000000000000000000000000000000000008152600401611ee8906142e5565b60405180910390fd5b6001600360008473ffffffffffffffffffffffffffffffffffffffff1673ffffffffffffffffffffffffffffffffffffffff16815260200190815260200160002060008282540192505081905550816002600083815260200190815260200160002060006101000a81548173ffffffffffffffffffffffffffffffffffffffff021916908373ffffffffffffffffffffffffffffffffffffffff160217905550808273ffffffffffffffffffffffffffffffffffffffff16600073ffffffffffffffffffffffffffffffffffffffff167fddf252ad1be2c89b69c2b068fc378daa952ba7f163c4a11628f55a4df523b3ef60405160405180910390a4611ffb600083836001612af9565b5050565b60606000600161200e84612aff565b01905060008167ffffffffffffffff81111561202d5761202c613465565b5b6040519080825280601f01601f19166020018201604052801561205f5781602001600182028036833780820191505090505b509050600082602001820190505b6001156120c2578080600190039150507f3031323334353637383961626364656600000000000000000000000000000000600a86061a8153600a85816120b6576120b5614305565b5b0494506000850361206d575b819350505050919050565b6120d682612992565b612115576040517f08c379a000000000000000000000000000000000000000000000000000000000815260040161210c906143a6565b60405180910390fd5b806006600084815260200190815260200160002090816121359190613f4d565b505050565b60008061214683610c91565b90508073ffffffffffffffffffffffffffffffffffffffff168473ffffffffffffffffffffffffffffffffffffffff1614806121885750612187818561195d565b5b806121c657508373ffffffffffffffffffffffffffffffffffffffff166121ae84610720565b73ffffffffffffffffffffffffffffffffffffffff16145b91505092915050565b8273ffffffffffffffffffffffffffffffffffffffff166121ef82610c91565b73ffffffffffffffffffffffffffffffffffffffff1614612245576040517f08c379a000000000000000000000000000000000000000000000000000000000815260040161223c90614438565b60405180910390fd5b600073ffffffffffffffffffffffffffffffffffffffff168273ffffffffffffffffffffffffffffffffffffffff16036122b4576040517f08c379a00000000000000000000000000000000000000000000000000000000081526004016122ab906144ca565b60405180910390fd5b6122c183838360016129d3565b8273ffffffffffffffffffffffffffffffffffffffff166122e182610c91565b73ffffffffffffffffffffffffffffffffffffffff1614612337576040517f08c379a000000000000000000000000000000000000000000000000000000000815260040161232e90614438565b60405180910390fd5b6004600082815260200190815260200160002060006101000a81549073ffffffffffffffffffffffffffffffffffffffff02191690556001600360008573ffffffffffffffffffffffffffffffffffffffff1673ffffffffffffffffffffffffffffffffffffffff168152602001908152602001600020600082825403925050819055506001600360008473ffffffffffffffffffffffffffffffffffffffff1673ffffffffffffffffffffffffffffffffffffffff16815260200190815260200160002060008282540192505081905550816002600083815260200190815260200160002060006101000a81548173ffffffffffffffffffffffffffffffffffffffff021916908373ffffffffffffffffffffffffffffffffffffffff160217905550808273ffffffffffffffffffffffffffffffffffffffff168473ffffffffffffffffffffffffffffffffffffffff167fddf252ad1be2c89b69c2b068fc378daa952ba7f163c4a11628f55a4df523b3ef60405160405180910390a46124c38383836001612af9565b505050565b60006002600083815260200190815260200160002060009054906101000a900473ffffffffffffffffffffffffffffffffffffffff169050919050565b80600b600082815260200190815260200160002060030160019054906101000a900460ff16612569576040517f08c379a000000000000000000000000000000000000000000000000000000000815260040161256090614536565b60405180910390fd5b6001600b600084815260200190815260200160002060030160006101000a81548160ff021916908360018111156125a3576125a2613281565b5b02179055507fcb893910cb393b5bb0c66f4e542a99176d507fa36b0cb944e421bec6a93e7356826040516125d791906131d2565b60405180910390a15050565b600081600001549050919050565b6001816000016000828254019250508190555050565b61260f611d21565b73ffffffffffffffffffffffffffffffffffffffff1661262d6111ea565b73ffffffffffffffffffffffffffffffffffffffff1614612683576040517f08c379a000000000000000000000000000000000000000000000000000000000815260040161267a906145a2565b60405180910390fd5b565b6000600760009054906101000a900473ffffffffffffffffffffffffffffffffffffffff16905081600760006101000a81548173ffffffffffffffffffffffffffffffffffffffff021916908373ffffffffffffffffffffffffffffffffffffffff1602179055508173ffffffffffffffffffffffffffffffffffffffff168173ffffffffffffffffffffffffffffffffffffffff167f8be0079c531659141344cd1fd0a4f28419497f9722a3daafe3b4186f6b6457e060405160405180910390a35050565b8173ffffffffffffffffffffffffffffffffffffffff168373ffffffffffffffffffffffffffffffffffffffff16036127b9576040517f08c379a00000000000000000000000000000000000000000000000000000000081526004016127b09061460e565b60405180910390fd5b80600560008573ffffffffffffffffffffffffffffffffffffffff1673ffffffffffffffffffffffffffffffffffffffff16815260200190815260200160002060008473ffffffffffffffffffffffffffffffffffffffff1673ffffffffffffffffffffffffffffffffffffffff16815260200190815260200160002060006101000a81548160ff0219169083151502179055508173ffffffffffffffffffffffffffffffffffffffff168373ffffffffffffffffffffffffffffffffffffffff167f17307eab39ab6107e8899845ad3d59bd9653f200f220920489ca2b5937696c31836040516128aa9190612f78565b60405180910390a3505050565b6128c28484846121cf565b6128ce84848484612c52565b61290d576040517f08c379a0000000000000000000000000000000000000000000000000000000008152600401612904906146a0565b60405180910390fd5b50505050565b606060405180602001604052806000815250905090565b606061293582611cd6565b600061293f612913565b9050600081511161295f576040518060200160405280600081525061298a565b8061296984611fff565b60405160200161297a929190614148565b6040516020818303038152906040525b915050919050565b60008073ffffffffffffffffffffffffffffffffffffffff166129b4836124c8565b73ffffffffffffffffffffffffffffffffffffffff1614159050919050565b6001811115612af357600073ffffffffffffffffffffffffffffffffffffffff168473ffffffffffffffffffffffffffffffffffffffff1614612a675780600360008673ffffffffffffffffffffffffffffffffffffffff1673ffffffffffffffffffffffffffffffffffffffff1681526020019081526020016000206000828254612a5f91906146ef565b925050819055505b600073ffffffffffffffffffffffffffffffffffffffff168373ffffffffffffffffffffffffffffffffffffffff1614612af25780600360008573ffffffffffffffffffffffffffffffffffffffff1673ffffffffffffffffffffffffffffffffffffffff1681526020019081526020016000206000828254612aea9190614723565b925050819055505b5b50505050565b50505050565b600080600090507a184f03e93ff9f4daa797ed6e38ed64bf6a1f0100000000000000008310612b5d577a184f03e93ff9f4daa797ed6e38ed64bf6a1f0100000000000000008381612b5357612b52614305565b5b0492506040810190505b6d04ee2d6d415b85acef81000000008310612b9a576d04ee2d6d415b85acef81000000008381612b9057612b8f614305565b5b0492506020810190505b662386f26fc100008310612bc957662386f26fc100008381612bbf57612bbe614305565b5b0492506010810190505b6305f5e1008310612bf2576305f5e1008381612be857612be7614305565b5b0492506008810190505b6127108310612c17576127108381612c0d57612c0c614305565b5b0492506004810190505b60648310612c3a5760648381612c3057612c2f614305565b5b0492506002810190505b600a8310612c49576001810190505b80915050919050565b6000612c738473ffffffffffffffffffffffffffffffffffffffff16612dd9565b15612dcc578373ffffffffffffffffffffffffffffffffffffffff1663150b7a02612c9c611d21565b8786866040518563ffffffff1660e01b8152600401612cbe94939291906147ac565b6020604051808303816000875af1925050508015612cfa57506040513d601f19601f82011682018060405250810190612cf7919061480d565b60015b612d7c573d8060008114612d2a576040519150601f19603f3d011682016040523d82523d6000602084013e612d2f565b606091505b506000815103612d74576040517f08c379a0000000000000000000000000000000000000000000000000000000008152600401612d6b906146a0565b60405180910390fd5b805181602001fd5b63150b7a0260e01b7bffffffffffffffffffffffffffffffffffffffffffffffffffffffff1916817bffffffffffffffffffffffffffffffffffffffffffffffffffffffff191614915050612dd1565b600190505b949350505050565b6000808273ffffffffffffffffffffffffffffffffffffffff163b119050919050565b6040518060e0016040528060008152602001600073ffffffffffffffffffffffffffffffffffffffff1681526020016060815260200160006001811115612e4657612e45613281565b5b81526020016000151581526020016000151581526020016000151581525090565b508054612e73906139e1565b6000825580601f10612e855750612ea4565b601f016020900490600052602060002090810190612ea39190612ea7565b5b50565b5b80821115612ec0576000816000905550600101612ea8565b5090565b6000604051905090565b600080fd5b600080fd5b60007fffffffff0000000000000000000000000000000000000000000000000000000082169050919050565b612f0d81612ed8565b8114612f1857600080fd5b50565b600081359050612f2a81612f04565b92915050565b600060208284031215612f4657612f45612ece565b5b6000612f5484828501612f1b565b91505092915050565b60008115159050919050565b612f7281612f5d565b82525050565b6000602082019050612f8d6000830184612f69565b92915050565b600081519050919050565b600082825260208201905092915050565b60005b83811015612fcd578082015181840152602081019050612fb2565b60008484015250505050565b6000601f19601f8301169050919050565b6000612ff582612f93565b612fff8185612f9e565b935061300f818560208601612faf565b61301881612fd9565b840191505092915050565b6000602082019050818103600083015261303d8184612fea565b905092915050565b6000819050919050565b61305881613045565b811461306357600080fd5b50565b6000813590506130758161304f565b92915050565b60006020828403121561309157613090612ece565b5b600061309f84828501613066565b91505092915050565b600073ffffffffffffffffffffffffffffffffffffffff82169050919050565b60006130d3826130a8565b9050919050565b6130e3816130c8565b82525050565b60006020820190506130fe60008301846130da565b92915050565b61310d816130c8565b811461311857600080fd5b50565b60008135905061312a81613104565b92915050565b6000806040838503121561314757613146612ece565b5b60006131558582860161311b565b925050602061316685828601613066565b9150509250929050565b60008060006060848603121561318957613188612ece565b5b60006131978682870161311b565b93505060206131a88682870161311b565b92505060406131b986828701613066565b9150509250925092565b6131cc81613045565b82525050565b60006020820190506131e760008301846131c3565b92915050565b600081519050919050565b600082825260208201905092915050565b6000819050602082019050919050565b61322281613045565b82525050565b613231816130c8565b82525050565b600082825260208201905092915050565b600061325382612f93565b61325d8185613237565b935061326d818560208601612faf565b61327681612fd9565b840191505092915050565b7f4e487b7100000000000000000000000000000000000000000000000000000000600052602160045260246000fd5b600281106132c1576132c0613281565b5b50565b60008190506132d2826132b0565b919050565b60006132e2826132c4565b9050919050565b6132f2816132d7565b82525050565b61330181612f5d565b82525050565b600060e08301600083015161331f6000860182613219565b5060208301516133326020860182613228565b506040830151848203604086015261334a8282613248565b915050606083015161335f60608601826132e9565b50608083015161337260808601826132f8565b5060a083015161338560a08601826132f8565b5060c083015161339860c08601826132f8565b508091505092915050565b60006133af8383613307565b905092915050565b6000602082019050919050565b60006133cf826131ed565b6133d981856131f8565b9350836020820285016133eb85613209565b8060005b85811015613427578484038952815161340885826133a3565b9450613413836133b7565b925060208a019950506001810190506133ef565b50829750879550505050505092915050565b6000602082019050818103600083015261345381846133c4565b905092915050565b600080fd5b600080fd5b7f4e487b7100000000000000000000000000000000000000000000000000000000600052604160045260246000fd5b61349d82612fd9565b810181811067ffffffffffffffff821117156134bc576134bb613465565b5b80604052505050565b60006134cf612ec4565b90506134db8282613494565b919050565b600067ffffffffffffffff8211156134fb576134fa613465565b5b61350482612fd9565b9050602081019050919050565b82818337600083830152505050565b600061353361352e846134e0565b6134c5565b90508281526020810184848401111561354f5761354e613460565b5b61355a848285613511565b509392505050565b600082601f8301126135775761357661345b565b5b8135613587848260208601613520565b91505092915050565b600080604083850312156135a7576135a6612ece565b5b60006135b58582860161311b565b925050602083013567ffffffffffffffff8111156135d6576135d5612ed3565b5b6135e285828601613562565b9150509250929050565b60006020828403121561360257613601612ece565b5b60006136108482850161311b565b91505092915050565b61362281612f5d565b811461362d57600080fd5b50565b60008135905061363f81613619565b92915050565b6000806040838503121561365c5761365b612ece565b5b600061366a8582860161311b565b925050602061367b85828601613630565b9150509250929050565b60008060006060848603121561369e5761369d612ece565b5b60006136ac86828701613066565b93505060206136bd86828701613066565b925050604084013567ffffffffffffffff8111156136de576136dd612ed3565b5b6136ea86828701613562565b9150509250925092565b600067ffffffffffffffff82111561370f5761370e613465565b5b61371882612fd9565b9050602081019050919050565b6000613738613733846136f4565b6134c5565b90508281526020810184848401111561375457613753613460565b5b61375f848285613511565b509392505050565b600082601f83011261377c5761377b61345b565b5b813561378c848260208601613725565b91505092915050565b600080600080608085870312156137af576137ae612ece565b5b60006137bd8782880161311b565b94505060206137ce8782880161311b565b93505060406137df87828801613066565b925050606085013567ffffffffffffffff811115613800576137ff612ed3565b5b61380c87828801613767565b91505092959194509250565b6000806040838503121561382f5761382e612ece565b5b600061383d85828601613066565b925050602083013567ffffffffffffffff81111561385e5761385d612ed3565b5b61386a85828601613562565b9150509250929050565b600060e08301600083015161388c6000860182613219565b50602083015161389f6020860182613228565b50604083015184820360408601526138b78282613248565b91505060608301516138cc60608601826132e9565b5060808301516138df60808601826132f8565b5060a08301516138f260a08601826132f8565b5060c083015161390560c08601826132f8565b508091505092915050565b6000602082019050818103600083015261392a8184613874565b905092915050565b6000806040838503121561394957613948612ece565b5b600061395785828601613066565b92505060206139688582860161311b565b9150509250929050565b6000806040838503121561398957613988612ece565b5b60006139978582860161311b565b92505060206139a88582860161311b565b9150509250929050565b7f4e487b7100000000000000000000000000000000000000000000000000000000600052602260045260246000fd5b600060028204905060018216806139f957607f821691505b602082108103613a0c57613a0b6139b2565b5b50919050565b7f4552433732313a20617070726f76616c20746f2063757272656e74206f776e6560008201527f7200000000000000000000000000000000000000000000000000000000000000602082015250565b6000613a6e602183612f9e565b9150613a7982613a12565b604082019050919050565b60006020820190508181036000830152613a9d81613a61565b9050919050565b7f4552433732313a20617070726f76652063616c6c6572206973206e6f7420746f60008201527f6b656e206f776e6572206f7220617070726f76656420666f7220616c6c000000602082015250565b6000613b00603d83612f9e565b9150613b0b82613aa4565b604082019050919050565b60006020820190508181036000830152613b2f81613af3565b9050919050565b7f537572766579206e6f74207465726d696e617465640000000000000000000000600082015250565b6000613b6c601583612f9e565b9150613b7782613b36565b602082019050919050565b60006020820190508181036000830152613b9b81613b5f565b9050919050565b600081905092915050565b6000613bb882612f93565b613bc28185613ba2565b9350613bd2818560208601612faf565b80840191505092915050565b7f2e6a736f6e000000000000000000000000000000000000000000000000000000815250565b6000613c108285613bad565b9150613c1c8284613bad565b9150613c2782613bde565b6005820191508190509392505050565b7f4552433732313a2063616c6c6572206973206e6f7420746f6b656e206f776e6560008201527f72206f7220617070726f76656400000000000000000000000000000000000000602082015250565b6000613c93602d83612f9e565b9150613c9e82613c37565b604082019050919050565b60006020820190508181036000830152613cc281613c86565b9050919050565b7f4552433732313a20696e76616c696420746f6b656e2049440000000000000000600082015250565b6000613cff601883612f9e565b9150613d0a82613cc9565b602082019050919050565b60006020820190508181036000830152613d2e81613cf2565b9050919050565b7f537572766579206e6f74206f6e476f696e672100000000000000000000000000600082015250565b6000613d6b601383612f9e565b9150613d7682613d35565b602082019050919050565b60006020820190508181036000830152613d9a81613d5e565b9050919050565b60008190508160005260206000209050919050565b60006020601f8301049050919050565b600082821b905092915050565b600060088302613e037fffffffffffffffffffffffffffffffffffffffffffffffffffffffffffffffff82613dc6565b613e0d8683613dc6565b95508019841693508086168417925050509392505050565b6000819050919050565b6000613e4a613e45613e4084613045565b613e25565b613045565b9050919050565b6000819050919050565b613e6483613e2f565b613e78613e7082613e51565b848454613dd3565b825550505050565b600090565b613e8d613e80565b613e98818484613e5b565b505050565b5b81811015613ebc57613eb1600082613e85565b600181019050613e9e565b5050565b601f821115613f0157613ed281613da1565b613edb84613db6565b81016020851015613eea578190505b613efe613ef685613db6565b830182613e9d565b50505b505050565b600082821c905092915050565b6000613f2460001984600802613f06565b1980831691505092915050565b6000613f3d8383613f13565b9150826002028217905092915050565b613f5682612f93565b67ffffffffffffffff811115613f6f57613f6e613465565b5b613f7982546139e1565b613f84828285613ec0565b600060209050601f831160018114613fb75760008415613fa5578287015190505b613faf8582613f31565b865550614017565b601f198416613fc586613da1565b60005b82811015613fed57848901518255600182019150602085019450602081019050613fc8565b8683101561400a5784890151614006601f891682613f13565b8355505b6001600288020188555050505b505050505050565b600060408201905061403460008301856130da565b61404160208301846131c3565b9392505050565b7f4552433732313a2061646472657373207a65726f206973206e6f74206120766160008201527f6c6964206f776e65720000000000000000000000000000000000000000000000602082015250565b60006140a4602983612f9e565b91506140af82614048565b604082019050919050565b600060208201905081810360008301526140d381614097565b9050919050565b60006080820190506140ef60008301876130da565b6140fc60208301866131c3565b61410960408301856131c3565b61411660608301846131c3565b95945050505050565b600060408201905061413460008301856131c3565b61414160208301846131c3565b9392505050565b60006141548285613bad565b91506141608284613bad565b91508190509392505050565b7f4e487b7100000000000000000000000000000000000000000000000000000000600052603260045260246000fd5b7f4f776e61626c653a206e6577206f776e657220697320746865207a65726f206160008201527f6464726573730000000000000000000000000000000000000000000000000000602082015250565b60006141f7602683612f9e565b91506142028261419b565b604082019050919050565b60006020820190508181036000830152614226816141ea565b9050919050565b7f4552433732313a206d696e7420746f20746865207a65726f2061646472657373600082015250565b6000614263602083612f9e565b915061426e8261422d565b602082019050919050565b6000602082019050818103600083015261429281614256565b9050919050565b7f4552433732313a20746f6b656e20616c7265616479206d696e74656400000000600082015250565b60006142cf601c83612f9e565b91506142da82614299565b602082019050919050565b600060208201905081810360008301526142fe816142c2565b9050919050565b7f4e487b7100000000000000000000000000000000000000000000000000000000600052601260045260246000fd5b7f45524337323155524953746f726167653a2055524920736574206f66206e6f6e60008201527f6578697374656e7420746f6b656e000000000000000000000000000000000000602082015250565b6000614390602e83612f9e565b915061439b82614334565b604082019050919050565b600060208201905081810360008301526143bf81614383565b9050919050565b7f4552433732313a207472616e736665722066726f6d20696e636f72726563742060008201527f6f776e6572000000000000000000000000000000000000000000000000000000602082015250565b6000614422602583612f9e565b915061442d826143c6565b604082019050919050565b6000602082019050818103600083015261445181614415565b9050919050565b7f4552433732313a207472616e7366657220746f20746865207a65726f2061646460008201527f7265737300000000000000000000000000000000000000000000000000000000602082015250565b60006144b4602483612f9e565b91506144bf82614458565b604082019050919050565b600060208201905081810360008301526144e3816144a7565b9050919050565b7f53757276657920646f206e6f7420657869737473000000000000000000000000600082015250565b6000614520601483612f9e565b915061452b826144ea565b602082019050919050565b6000602082019050818103600083015261454f81614513565b9050919050565b7f4f776e61626c653a2063616c6c6572206973206e6f7420746865206f776e6572600082015250565b600061458c602083612f9e565b915061459782614556565b602082019050919050565b600060208201905081810360008301526145bb8161457f565b9050919050565b7f4552433732313a20617070726f766520746f2063616c6c657200000000000000600082015250565b60006145f8601983612f9e565b9150614603826145c2565b602082019050919050565b60006020820190508181036000830152614627816145eb565b9050919050565b7f4552433732313a207472616e7366657220746f206e6f6e20455243373231526560008201527f63656976657220696d706c656d656e7465720000000000000000000000000000602082015250565b600061468a603283612f9e565b91506146958261462e565b604082019050919050565b600060208201905081810360008301526146b98161467d565b9050919050565b7f4e487b7100000000000000000000000000000000000000000000000000000000600052601160045260246000fd5b60006146fa82613045565b915061470583613045565b925082820390508181111561471d5761471c6146c0565b5b92915050565b600061472e82613045565b915061473983613045565b9250828201905080821115614751576147506146c0565b5b92915050565b600081519050919050565b600082825260208201905092915050565b600061477e82614757565b6147888185614762565b9350614798818560208601612faf565b6147a181612fd9565b840191505092915050565b60006080820190506147c160008301876130da565b6147ce60208301866130da565b6147db60408301856131c3565b81810360608301526147ed8184614773565b905095945050505050565b60008151905061480781612f04565b92915050565b60006020828403121561482357614822612ece565b5b6000614831848285016147f8565b9150509291505056fe68747470733a2f2f697066732e696f2f697066732f516d5571444575785134676d7039395a7145665152646e72683459736e45416a686944726555787759434775786f2fa26469706673582212206648020a2d104efa502e261369a8a612d9cf6452223096d3b8d3729e595f955664736f6c63430008110033",
  "immutableReferences": {},
  "source": "// SPDX-License-Identifier: GPL-3.0\npragma solidity 0.8.17;\n\nimport \"../node_modules/@openzeppelin/contracts/token/ERC721/extensions/ERC721URIStorage.sol\";\nimport \"../node_modules/@openzeppelin/contracts/token/ERC20/IERC20.sol\";\nimport \"../node_modules/@openzeppelin/contracts/token/ERC20/IERC20.sol\";\nimport \"../node_modules/@openzeppelin/contracts/utils/Counters.sol\";\nimport \"../node_modules/@openzeppelin/contracts/access/Ownable.sol\";\nimport \"../node_modules/@openzeppelin/contracts/utils/Strings.sol\";\n\n//Interface ChlChainSBT\n/*interface ChlChainSBT {\n    function isSounder(address _profileAddress) external view returns (bool);\n    function isChallengeed(address _profileAddress) external view returns (bool);\n}*/\n\n/// @title  ChlChain Challenge NFT\n/// @author Saad Igueninni\n/// @notice ERC721 NFT associated to on Challenge\n/// @dev Inherits the OpenZepplin Ownable ,ERC721URIStorage,Counters & Strings contracts\ncontract ChlChainChallengeNFT is ERC721URIStorage, Ownable {\n    using Counters for Counters.Counter;\n\n    Counters.Counter private _idQuestion;\n    Counters.Counter private _idAnswer;\n    Counters.Counter private _idChallengeNFT;\n\n    enum ChallengeStatus {\n        OnGoing,\n        Terminated\n    }\n\n    struct Question {\n        uint256 idQuestion;\n        string textQuestion;\n    }\n\n    struct Answer {\n        address ownerAnswer;\n        uint256 idAnswer;\n        string textAnswer;\n    }\n\n    struct Challenge {\n        uint256 idChallenge;\n        address owner;\n        string description;\n        ChallengeStatus ChallengeStatus;\n        bool exists;\n        bool minted;\n        bool listed;\n    }\n\n    mapping(uint256 => Challenge) idToChallenges;\n    //mapping(uint256 => address) idToOwner;\n    mapping(address => Challenge[]) addressToChallenges;\n    // mapping( uint => Answer[])  questionToAnswers;\n    mapping(uint256 => Question[]) ChallengeToQuestion;\n    mapping(uint256 => mapping(uint256 => Answer[])) ChallengeToQuestionToAnswer;\n\n    uint256 public constant ChallengeUnitCost = 500;\n    //address marketplaceContract;\n    // ChlChainSBT sbtContract;\n    IERC20 Chl;\n\n    event ChallengeCreated(address _ownerChallenge, uint256 _idChallenge);\n    event ChallengeTerminated(uint256 _idChallenge);\n    event ChallengeDeleted(uint256 _idChallenge);\n    event ChallengeNFTMinted(uint256 _idChallenge);\n    event questionAdded(uint256 _idQuestion, uint256 _idChallenge);\n    event answerGiven(\n        address _ownerAnswer,\n        uint256 _idAnswer,\n        uint256 _idChallenge,\n        uint256 idQuestion\n    );\n\n    //constructor(address _marketplaceContract, address _ChlChainSBTAddress,address _ChlAddress)\n    constructor() ERC721(\"ChlChainChallenge\", \"OPS\") {\n        //marketplaceContract = _marketplaceContract;\n        // sbtContract = ChlChainSBT(_ChlChainSBTAddress);\n        // Chl = IERC20(_ChlAddress);\n    }\n\n    // ::::::::::::: MODIFIERS ::::::::::::: //\n    modifier ChallengeExist(uint256 _idChallenge) {\n        require(idToChallenges[_idChallenge].exists, \"Challenge do not exists\");\n        _;\n    }\n\n    /* modifier onlySounders() {\n        require(sbtContract.isSounder(msg.sender), \"You are not a sounder\");\n        _;\n    }\n\n    modifier onlyChallengeeds() {\n        require(sbtContract.isChallengeed(msg.sender), \"You are not a Challengeed\");\n        _;\n    }*/\n\n    // ::::::::::::: GETTERS ::::::::::::: //\n    function getChallengeStatusById(uint256 _idChallenge)\n        public\n        view\n        returns (uint256)\n    {\n        return (uint256(idToChallenges[_idChallenge].ChallengeStatus));\n    }\n\n    function getChallengeById(uint256 _idChallenge)\n        public\n        view\n        returns (Challenge memory)\n    {\n        return idToChallenges[_idChallenge];\n    }\n\n    function getChallengeByAddress(address _ownerChallenge, uint256 _idChallenge)\n        public\n        view\n        returns (Challenge memory)\n    {\n        return addressToChallenges[_ownerChallenge][_idChallenge];\n    }\n\n    function getMyChallenges()\n        public\n        view\n        returns ( Challenge[] memory)\n    {\n        return addressToChallenges[msg.sender];\n    }\n\n    // ::::::::::::: SETTERS ::::::::::::: //\n    /// @notice Terminate Challenge\n    /// @dev We check non existence of Challenge\n    /// @param _idChallenge Id of ChallengeNFT result\n    function setChallengeTerminated(uint256 _idChallenge)\n        internal\n        ChallengeExist(_idChallenge)\n    {\n        idToChallenges[_idChallenge].ChallengeStatus = ChallengeStatus.Terminated;\n       // addressToChallenges[msg.sender][_idChallenge].ChallengeStatus = ChallengeStatus.Terminated;\n        //Check if we need the mapping\n        emit ChallengeTerminated(_idChallenge);\n    }\n\n    /// @notice change Flag listed\n    /// @param _idChallenge Id of ChallengeNFT result\n    function setChallengeListed(uint256 _idChallenge) external {\n        idToChallenges[_idChallenge].listed = true;\n    //    addressToChallenges[msg.sender][_idChallenge].listed = true;\n    }\n\n    function setChallengeOwner(uint256 _idChallenge, address _owner) external {\n        idToChallenges[_idChallenge].owner = _owner;\n     //   addressToChallenges[msg.sender][_idChallenge].owner = _owner;\n    }\n\n    // ::::::::::::: ChallengeS HANDLING ::::::::::::: //\n\n    /// @notice Create a Challenge\n    /// @dev We check non existence of Challenge and check Balance of Chls to be able to create Challenges\n    /// @param _ownerChallenge owner of ChallengeNFT result\n    /// @param _description description\n    function createChallenge(address _ownerChallenge, string memory _description)\n        external\n    {\n        //require assez de balance\n        uint256 newIdChallenge = _idChallengeNFT.current();\n        Challenge memory newChallenge;\n        newChallenge = Challenge(\n            newIdChallenge,\n            _ownerChallenge,\n            _description,\n            ChallengeStatus.OnGoing,\n            true,\n            false,\n            false\n        );\n\n        //Update mapping\n        idToChallenges[newIdChallenge] = newChallenge;\n        addressToChallenges[_ownerChallenge].push(newChallenge);\n        _idChallengeNFT.increment();\n        emit ChallengeCreated(_ownerChallenge, newIdChallenge);\n    }\n\n    /// @notice Mint a Challenge\n    /// @dev Mint only when in status Terminated\n    /// @param _idChallenge id of ChallengeNFT result\n    function mintChallenge(address marketplaceContract, uint256 _idChallenge)\n        external\n    {\n        require(\n            getChallengeStatusById(_idChallenge) == uint256(ChallengeStatus.Terminated),\n            \"Challenge not terminated\"\n        );\n\n        address _ownerChallenge;\n\n        //setApprovalForAll(marketplaceContract, true); //Give approval to marketplace\n        _ownerChallenge = idToChallenges[_idChallenge].owner;\n        _mint(marketplaceContract, _idChallenge);\n        setApprovalForAll(marketplaceContract, true);\n        idToChallenges[_idChallenge].minted = true;\n        \n        //addressToChallenges[_ownerChallenge][_idChallenge].minted = true;\n\n        string memory urinumber = Strings.toString(_idChallenge);\n        string\n            memory tokenURI = \"https://ipfs.io/ipfs/QmUqDEuxQ4gmp99ZqEfQRdnrh4YsnEAjhiDreUxwYCGuxo/\"; //To change by CID of !!\n        string memory _Uri = string.concat(tokenURI, urinumber, \".json\");\n\n        _setTokenURI(_idChallenge, _Uri);\n\n        emit ChallengeNFTMinted(_idChallenge);\n    }\n\n    /// @notice Terminate a Challenge\n    /// @dev only Terminated Challenges can be minted\n    /// @param _idChallenge id of ChallengeNFT result\n    function terminateChallenge(\n        uint256 _idChallenge //onlyChallengeeds\n    ) external {\n        require(\n            getChallengeStatusById(_idChallenge) == uint256(ChallengeStatus.OnGoing),\n            \"Challenge not onGoing!\"\n        );\n        setChallengeTerminated(_idChallenge);\n        emit ChallengeTerminated(_idChallenge);\n    }\n\n    function deleteChallenge(uint256 _idChallenge) external {\n        delete idToChallenges[_idChallenge];\n        emit ChallengeDeleted(_idChallenge);\n    }\n\n    // ::::::::::::: QUESTIONS MANAGEMENT ::::::::::::: //\n\n    /// @notice Add a question\n    /// @dev Only Challengeeds can add a question\n    /// @param _idChallenge id of ChallengeNFT result\n    /// @param _question txt of question\n    function addQuestion(uint256 _idChallenge, string memory _question)\n        external\n    //onlyChallengeeds\n    {\n        uint256 newIdQuestion = _idQuestion.current();\n        ChallengeToQuestion[_idChallenge].push(Question(newIdQuestion, _question));\n        _idQuestion.increment();\n        emit questionAdded(newIdQuestion, _idChallenge);\n    }\n\n    // ::::::::::::: ANSWERS MANAGEMENT ::::::::::::: //\n\n    /// @notice Give answer\n    /// @dev Only Sounders can answer\n    /// @param _idChallenge id of ChallengeNFT result\n    /// @param _answer txt of answer\n    function giveAnswer(\n        uint256 _idChallenge,\n        uint256 _idQuestionAnswer,\n        string memory _answer //onlySounders\n    ) external {\n        uint256 newIdAnswer = _idAnswer.current();\n        ChallengeToQuestionToAnswer[_idChallenge][_idQuestionAnswer].push(\n            Answer(msg.sender, newIdAnswer, _answer)\n        );\n        _idAnswer.increment();\n        emit answerGiven(msg.sender, newIdAnswer, _idChallenge, _idQuestionAnswer);\n    }\n\n    //reveal_results -> une fois TERMINATED , & vendu on peut reveal.\n\n    // ::::::::::::: OVVERIDES ::::::::::::: //\n}\n",
  "sourcePath": "/home/saadi/coursAlyra/ChlChain/truffle/contracts/ChlChainChallengeNFT.sol",
  "compiler": {
    "name": "solc",
    "version": "0.8.17+commit.8df45f5f.Emscripten.clang"
  },
  "schemaVersion": "3.4.10",
  "updatedAt": "2023-07-21T15:06:56.505Z",
  "networkType": "ethereum",
  "devdoc": {
    "author": "Saad Igueninni",
    "details": "Inherits the OpenZepplin Ownable ,ERC721URIStorage,Counters & Strings contracts",
    "kind": "dev",
    "methods": {
      "addQuestion(uint256,string)": {
        "details": "Only Challengeeds can add a question",
        "params": {
          "_idChallenge": "id of ChallengeNFT result",
          "_question": "txt of question"
        }
      },
      "approve(address,uint256)": {
        "details": "See {IERC721-approve}."
      },
      "balanceOf(address)": {
        "details": "See {IERC721-balanceOf}."
      },
      "createChallenge(address,string)": {
        "details": "We check non existence of Challenge and check Balance of Chls to be able to create Challenges",
        "params": {
          "_description": "description",
          "_ownerChallenge": "owner of ChallengeNFT result"
        }
      },
      "getApproved(uint256)": {
        "details": "See {IERC721-getApproved}."
      },
      "giveAnswer(uint256,uint256,string)": {
        "details": "Only Sounders can answer",
        "params": {
          "_answer": "txt of answer",
          "_idChallenge": "id of ChallengeNFT result"
        }
      },
      "isApprovedForAll(address,address)": {
        "details": "See {IERC721-isApprovedForAll}."
      },
      "mintChallenge(address,uint256)": {
        "details": "Mint only when in status Terminated",
        "params": {
          "_idChallenge": "id of ChallengeNFT result"
        }
      },
      "name()": {
        "details": "See {IERC721Metadata-name}."
      },
      "owner()": {
        "details": "Returns the address of the current owner."
      },
      "ownerOf(uint256)": {
        "details": "See {IERC721-ownerOf}."
      },
      "renounceOwnership()": {
        "details": "Leaves the contract without owner. It will not be possible to call `onlyOwner` functions anymore. Can only be called by the current owner. NOTE: Renouncing ownership will leave the contract without an owner, thereby removing any functionality that is only available to the owner."
      },
      "safeTransferFrom(address,address,uint256)": {
        "details": "See {IERC721-safeTransferFrom}."
      },
      "safeTransferFrom(address,address,uint256,bytes)": {
        "details": "See {IERC721-safeTransferFrom}."
      },
      "setApprovalForAll(address,bool)": {
        "details": "See {IERC721-setApprovalForAll}."
      },
      "setChallengeListed(uint256)": {
        "params": {
          "_idChallenge": "Id of ChallengeNFT result"
        }
      },
      "supportsInterface(bytes4)": {
        "details": "See {IERC165-supportsInterface}."
      },
      "symbol()": {
        "details": "See {IERC721Metadata-symbol}."
      },
      "terminateChallenge(uint256)": {
        "details": "only Terminated Challenges can be minted",
        "params": {
          "_idChallenge": "id of ChallengeNFT result"
        }
      },
      "tokenURI(uint256)": {
        "details": "See {IERC721Metadata-tokenURI}."
      },
      "transferFrom(address,address,uint256)": {
        "details": "See {IERC721-transferFrom}."
      },
      "transferOwnership(address)": {
        "details": "Transfers ownership of the contract to a new account (`newOwner`). Can only be called by the current owner."
      }
    },
    "title": "ChlChain Challenge NFT",
    "version": 1
  },
  "userdoc": {
    "kind": "user",
    "methods": {
      "addQuestion(uint256,string)": {
        "notice": "Add a question"
      },
      "createChallenge(address,string)": {
        "notice": "Create a Challenge"
      },
      "giveAnswer(uint256,uint256,string)": {
        "notice": "Give answer"
      },
      "mintChallenge(address,uint256)": {
        "notice": "Mint a Challenge"
      },
      "setChallengeListed(uint256)": {
        "notice": "change Flag listed"
      },
      "terminateChallenge(uint256)": {
        "notice": "Terminate a Challenge"
      }
    },
    "notice": "ERC721 NFT associated to on Challenge",
    "version": 1
  }
}